:020000040800F2
:1080000000000320D59B0008B1990008B999000829
:10801000C1990008C9990008D19900080000000022
:10802000000000000000000000000000D9990008D6
:10803000E799000800000000F5990008039A00087D
:10804000259C0008259C0008259C0008259C00080C
:10805000259C0008259C0008259C0008259C0008FC
:10806000259C0008259C0008259C0008259C0008EC
:10807000259C0008259C0008259C0008259C0008DC
:10808000259C0008259C0008259C0008259C0008CC
:10809000259C0008259C0008259C0008259C0008BC
:1080A000259C0008259C0008259C0008259C0008AC
:1080B000259C0008259C0008259C0008259C00089C
:1080C000259C0008259C0008259C0008259C00088C
:1080D000259C0008259C0008259C0008259C00087C
:1080E000259C0008259C0008259C0008259C00086C
:1080F000259C0008259C0008259C0008259C00085C
:10810000259C0008259C0008259C0008259C00084B
:10811000259C0008259C0008259C0008259C00083B
:10812000259C0008259C0008259C0008259C00082B
:10813000259C0008259C0008259C0008259C00081B
:10814000259C0008259C0008259C0008119A000821
:10815000259C0008259C0008259C0008259C0008FB
:10816000259C0008259C0008259C0008259C0008EB
:10817000259C0008259C0008259C000800000000A4
:10818000259C0008259C0008259C0008259C0008CB
:10819000259C0008259C0008259C0008259C0008BB
:0C81A000259C0008259C0008259C000878
:1081B00010B5054C237833B9044B13B10448AFF321
:1081C00000800123237010BD100300200000000078
:1081D0006041010808B5034B1BB103490348AFF3E5
:1081E000008008BD00000000140300206041010869
:1081F00001F0FF01102A2BDB10F0070F08D010F858
:10820000013B013A8B422DD010F0070F42B3F6D15B
:10821000F0B441EA012141EA014122F007047FF074
:1082200000070023F0E80256083C85EA010586EACB
:10823000010685FA47F5A3FA87F586FA47F6A5FA07
:1082400087F68EB9EED1F0BC01F0FF0102F0070213
:1082500032B110F8013B013A83EA010313B1F8D1BE
:108260000020704701387047002D06BF354603389F
:10827000073815F0010F07D1013015F4807F02BFD8
:10828000013015F4C03F0130F0BC0138704700BF29
:10829000034613F8012B002AFBD1181A0138704746
:1082A00081F0004102E000BF83F0004330B54FEAA7
:1082B00041044FEA430594EA050F08BF90EA020F14
:1082C0001FBF54EA000C55EA020C7FEA645C7FEAA7
:1082D000655C00F0E2804FEA5454D4EB5555B8BFCA
:1082E0006D420CDD2C4480EA020281EA030382EA3B
:1082F000000083EA010180EA020281EA0303362DCD
:1083000088BF30BD11F0004F4FEA01314FF4801C9F
:108310004CEA113102D0404261EB410113F0004FB1
:108320004FEA03334CEA133302D0524263EB430368
:1083300094EA050F00F0A780A4F10104D5F1200E06
:108340000DDB02FA0EFC22FA05F2801841F1000161
:1083500003FA0EF2801843FA05F359410EE0A5F135
:1083600020050EF1200E012A03FA0EFC28BF4CF066
:10837000020C43FA05F3C01851EBE37101F000451C
:1083800007D54FF0000EDCF1000C7EEB00006EEB29
:108390000101B1F5801F1BD3B1F5001F0CD34908B3
:1083A0005FEA30004FEA3C0C04F101044FEA44520A
:1083B00012F5800F80F09A80BCF1004F08BF5FEA91
:1083C000500C50F1000041EB045141EA050130BD71
:1083D0005FEA4C0C404141EB0101013C28BFB1F583
:1083E000801FE9D291F0000F04BF01460020B1FACE
:1083F00081F308BF2033A3F10B03B3F120020CDAA1
:108400000C3208DD02F1140CC2F10C0201FA0CF07E
:1084100021FA02F10CE002F11402D8BFC2F1200CE3
:1084200001FA02F120FA0CFCDCBF41EA0C01904099
:10843000E41AA2BF01EB0451294330BD6FEA0404E2
:108440001F3C1CDA0C340EDC04F11404C4F12002CD
:1084500020FA04F001FA02F340EA030021FA04F3DF
:1084600045EA030130BDC4F10C04C4F1200220FA36
:1084700002F001FA04F340EA0300294630BD21FA74
:1084800004F0294630BD94F0000F83F4801306BF3A
:1084900081F480110134013D4EE77FEA645C18BF2E
:1084A0007FEA655C29D094EA050F08BF90EA020FC5
:1084B00005D054EA000C04BF1946104630BD91EABD
:1084C000030F1EBF0021002030BD5FEA545C05D1C0
:1084D0004000494128BF41F0004130BD14F58004FF
:1084E0003CBF01F5801130BD01F0004545F0FE4173
:1084F00041F470014FF0000030BD7FEA645C1ABFA8
:10850000194610467FEA655C1CBF0B46024650EADE
:10851000013406BF52EA033591EA030F41F400210A
:1085200030BD00BF90F0000F04BF0021704730B590
:108530004FF4806404F132044FF000054FF0000165
:1085400050E700BF90F0000F04BF0021704730B526
:108550004FF4806404F1320410F0004548BF4042FB
:108560004FF000013EE700BF42004FEAE2014FEA50
:1085700031014FEA02701FBF12F07F4393F07F4F2B
:1085800081F06051704732F07F4208BF704793F02E
:108590007F4F04BF41F40021704730B54FF4607441
:1085A00001F0004521F000411CE700BF50EA010244
:1085B00008BF704730B54FF000050AE050EA0102ED
:1085C00008BF704730B511F0004502D5404261EB5D
:1085D00041014FF4806404F132045FEA915C3FF49E
:1085E000D8AE4FF003025FEADC0C18BF03325FEA3B
:1085F000DC0C18BF033202EBDC02C2F1200300FAEC
:1086000003FC20FA02F001FA03FE40EA0E0021FA10
:1086100002F11444BDE600BF70B54FF0FF0C4CF4FE
:10862000E06C1CEA11541DBF1CEA135594EA0C0FB0
:1086300095EA0C0F00F0DEF82C4481EA030621EAEB
:108640004C5123EA4C5350EA013518BF52EA033526
:1086500041F4801143F4801338D0A0FB02CE4FF0D8
:108660000005E1FB02E506F00042E0FB03E54FF008
:108670000006E1FB03569CF0000F18BF4EF0010E00
:10868000A4F1FF04B6F5007F64F5407404D25FEAFC
:108690004E0E6D4146EB060642EAC62141EA5551AF
:1086A0004FEAC52040EA5E504FEACE2EB4F1FD0CF1
:1086B00088BFBCF5E06F1ED8BEF1004F08BF5FEA6F
:1086C000500E50F1000041EB045170BD06F0004621
:1086D00046EA010140EA020081EA0301B4EB5C04CE
:1086E000C2BFD4EB0C0541EA045170BD41F48011C6
:1086F0004FF0000E013C00F3AB8014F1360FDEBFEB
:10870000002001F0004170BDC4F10004203C35DAC6
:108710000C341BDC04F11404C4F1200500FA05F349
:1087200020FA04F001FA05F240EA020001F00042EA
:1087300021F0004110EBD37021FA04F642EB060160
:108740005EEA430E08BF20EAD37070BDC4F10C048A
:10875000C4F1200500FA04F320FA05F001FA04F24E
:1087600040EA020001F0004110EBD37041F100013A
:108770005EEA430E08BF20EAD37070BDC4F1200545
:1087800000FA05F24EEA020E20FA04F301FA05F2AD
:1087900043EA020321FA04F001F0004121FA04F255
:1087A00020EA020000EBD3705EEA430E08BF20EA25
:1087B000D37070BD94F0000F0FD101F0004640005F
:1087C00041EB010111F4801F08BF013CF7D041EAE1
:1087D000060195F0000F18BF704703F000465200E5
:1087E00043EB030313F4801F08BF013DF7D043EAB6
:1087F0000603704794EA0C0F0CEA135518BF95EA6C
:108800000C0F0CD050EA410618BF52EA4306D1D1F2
:1088100081EA030101F000414FF0000070BD50EA11
:10882000410606BF1046194652EA430619D094EA9B
:108830000C0F02D150EA013613D195EA0C0F05D185
:1088400052EA03361CBF104619460AD181EA0301D9
:1088500001F0004141F0FE4141F470014FF0000091
:1088600070BD41F0FE4141F4780170BD70B54FF02C
:10887000FF0C4CF4E06C1CEA11541DBF1CEA1355AC
:1088800094EA0C0F95EA0C0F00F0A7F8A4EB05048E
:1088900081EA030E52EA03354FEA013100F0888085
:1088A0004FEA03334FF0805545EA131343EA12634E
:1088B0004FEA022245EA111545EA10654FEA002603
:1088C0000EF000419D4208BF964244F1FD0404F5BC
:1088D000407402D25B084FEA3202B61A65EB030518
:1088E0005B084FEA32024FF480104FF4002CB6EBD5
:1088F000020E75EB030E22BFB61A754640EA0C0055
:108900005B084FEA3202B6EB020E75EB030E22BF94
:10891000B61A754640EA5C005B084FEA3202B6EBD5
:10892000020E75EB030E22BFB61A754640EA9C0094
:108930005B084FEA3202B6EB020E75EB030E22BF64
:10894000B61A754640EADC0055EA060E18D04FEA22
:10895000051545EA16754FEA06164FEAC30343EAC2
:1089600052734FEAC2025FEA1C1CC0D111F4801F8F
:108970000BD141EA00014FF000004FF0004CB6E788
:1089800011F4801F04BF01430020B4F1FD0C88BF27
:10899000BCF5E06F3FF6AFAEB5EB030C04BFB6EB32
:1089A000020C5FEA500C50F1000041EB045170BD25
:1089B0000EF0004E4EEA113114EB5C04C2BFD4EB52
:1089C0000C0541EA045170BD41F480114FF0000ED6
:1089D000013C90E645EA060E8DE60CEA135594EA52
:1089E0000C0F08BF95EA0C0F3FF43BAF94EA0C0F55
:1089F0000AD150EA01347FF434AF95EA0C0F7FF4CA
:108A000025AF104619462CE795EA0C0F06D152EA1D
:108A100003353FF4FDAE1046194622E750EA410601
:108A200018BF52EA43067FF4C5AE50EA41047FF412
:108A30000DAF52EA43057FF4EBAE12E74FF0FF3C77
:108A400006E000BF4FF0010C02E000BF4FF0010C48
:108A50004DF804CD4FEA410C7FEA6C5C4FEA430CC1
:108A600018BF7FEA6C5C1BD001B050EA410C0CBF10
:108A700052EA430C91EA030F02BF90EA020F002072
:108A8000704710F1000F91EA030F58BF994208BFD9
:108A900090422CBFD8176FEAE37040F00100704796
:108AA0004FEA410C7FEA6C5C02D150EA013C07D1ED
:108AB0004FEA430C7FEA6C5CD6D152EA033CD3D038
:108AC0005DF8040B704700BF8446104662468C4632
:108AD0001946634600E000BF01B5FFF7B7FF002865
:108AE00048BF10F1000F01BD4DF808EDFFF7F4FF8E
:108AF0000CBF012000205DF808FB00BF4DF808ED19
:108B0000FFF7EAFF34BF012000205DF808FB00BF3B
:108B10004DF808EDFFF7E0FF94BF012000205DF85D
:108B200008FB00BF4DF808EDFFF7CEFF94BF012012
:108B300000205DF808FB00BF4DF808EDFFF7C4FF0B
:108B400034BF012000205DF808FB00BF4FEA410C54
:108B50007FEA6C5C02D150EA013C0AD14FEA430C37
:108B60007FEA6C5C02D152EA033C02D14FF0000074
:108B700070474FF0010070474FEA410212F50012B2
:108B800015D211D56FF47873B3EB625212D94FEA54
:108B9000C12343F0004343EA505311F0004F23FA3E
:108BA00002F018BF404270474FF00000704750EA93
:108BB000013005D111F0004008BF6FF00040704750
:108BC0004FF00000704700BF53B94AB9002908BFF1
:108BD00000281CBF4FF0FF314FF0FF3000F088B984
:108BE000ADF1080C6DE904CE00F006F8DDF804E004
:108BF000DDE9022304B070472DE9F047089D8E4659
:108C000004468846002B4AD18A42174662D9B2FAF6
:108C100082F64EB1C6F1200301FA06F820FA03F3FA
:108C2000B74043EA0808B4404FEA174E1FFA87FCE2
:108C3000B8FBFEF1230C0EFB118843EA084301FB4D
:108C40000CF29A4209D9FB1801F1FF3080F0EA805A
:108C50009A4240F2E78002393B449A1AA3B2B2FB2F
:108C6000FEF00EFB102243EA024300FB0CFC9C4585
:108C700009D9FB1800F1FF3280F0D6809C4540F204
:108C8000D3803B44023840EA0140A3EB0C030021AF
:108C90001DB1F3400022C5E90032BDE8F0878B42E8
:108CA00005D90DB1C5E9000100210846F5E7B3FA81
:108CB00083F1002946D1734502D3824200F2058137
:108CC000841A6EEB030201209046002DE5D0C5E921
:108CD0000048E2E7002A00F09080B2FA82F6002E07
:108CE00040F0A4808A1A030C4FEA174E80B2BCB23F
:108CF0000121B2FBFEFC0EFB1C2243EA024304FBF3
:108D00000CF29A4207D9FB180CF1FF3802D29A42B2
:108D100000F2E080C4469B1AB3FBFEF20EFB123356
:108D200040EA034302FB04F49C4207D9FB1802F11A
:108D3000FF3002D29C4200F2CA8002461B1B42EA6C
:108D40000C40A5E7C1F120068B4022FA06F71F432D
:108D50000EFA01F420FA06F32EFA06FE4FEA17493E
:108D6000234300FA01F81FFA87FCBEFBF9F01C0C44
:108D700009FB10EE44EA0E4400FB0CFEA64502FA85
:108D800001F209D93C1900F1FF3A80F09C80A64518
:108D900040F2998002383C44A4EB0E041FFA83FE93
:108DA000B4FBF9F309FB13444EEA044403FB0CFC47
:108DB000A44508D93C1903F1FF3E80F08280A44508
:108DC0007FD9023B3C4443EA0040A4EB0C04A0FBE7
:108DD00002EC64457346E14662D35FD05DB1B8EB07
:108DE000030264EB090404FA06F622FA01F31E43B7
:108DF000CC40C5E9006400214FE7B1FBF2FC010C57
:108E000041EA0E4180B240EA01423B4638463C46C8
:108E1000B846BE462026B1FBF7F1A2EB080241EAB4
:108E20000C4166E7014618E710462CE7C6F1200220
:108E30002EFA02F3B740B14020FA02F24FEA174E81
:108E40000A43B3FBFEF8BCB20EFB1833110C41EA27
:108E5000034108FB04F9B04089454FEA104380B252
:108E60003ED9791808F1FF3C01D289451FD8A1EB02
:108E70000901B1FBFEF909FB04F80EFB191192B2CE
:108E800042EA0142424529D2BA1809F1FF31C4D25F
:108E90004245C2D2A9F102013A44BEE7F0459DD253
:108EA000BEEB02036CEB070C0138E14696E7A7EB3B
:108EB00009094944A8F1020CB1FBFEF909FB04F8C9
:108EC000DBE773467FE7504666E70846FDE63B442E
:108ED000023A33E7ACF1020C3B441CE749469CE7FD
:108EE000A1EB0901C446B1FBFEF909FB04F8C4E794
:108EF000704700BF80B483B000AF0346FB71FB79BD
:108F00001B09DBB21A46920013445B00DAB2FB790C
:108F100003F00F03DBB21344DBB218460C37BD4637
:108F20005DF8047B704780B588B004AF78607868DE
:108F300000F053F8034683F00103DBB2002B01D0AD
:108F4000012346E04FF0FF3302930123019307F121
:108F50000E03009301230E22D021786801F0F6FB66
:108F60000346FB73FB7B002B01D0FB7B31E0BB7B1B
:108F700003F07F03DBB2BB73BB7B23F00403DBB2E4
:108F8000BB734FF0FF3302930123019307F10E03EC
:108F9000009301230E22D021786801F0DDFA034608
:108FA000FB73FB7B002B01D0FB7B12E000237B7368
:108FB0004FF0FF3302930123019307F10D03009358
:108FC00001230F22D021786801F0C6FA0346FB7313
:108FD000FB7B18461037BD4680BD80B582B000AF20
:108FE000786064230322D021786801F0E1FD034614
:108FF000002B0CBF01230023DBB218460837BD4607
:1090000080BD80B588B004AF786039604FF0FF3321
:1090100002930723019307F1080300930123002221
:10902000D021786801F092FB0346FB73FB7B002B99
:1090300049D13B7A03F07F03DBB21846FFF75AFFB2
:1090400003461A463B681A707B7A03F07F03DBB253
:109050001846FFF74FFF03461A463B685A70BB7A23
:1090600003F03F03DBB21846FFF744FF03461A46FE
:109070003B689A70FB7A03F00703DBB21846FFF7F0
:1090800039FF03461A463B68DA703B7B03F03F0327
:10909000DBB21846FFF72EFF03461A463B681A71EB
:1090A0007B7B03F01F03DBB21846FFF723FF034669
:1090B0001A463B685A71BB7B1846FFF71BFF0346F5
:1090C0001A463B689A71FB7B18461037BD4680BD37
:1090D00080B588B004AF786039604FF0FF330293F9
:1090E0000223019307F10803009301231122D021E9
:1090F000786801F02BFB0346FB73FB7B002B18D138
:109100003B7ABB737B7A9B097B7397F90E3007EE32
:10911000903AB8EEE77A7B7B07EE903AF8EEE77A82
:10912000F5EE006A67EEA67A77EE277A3B68C3ED24
:10913000007AFB7B18461037BD4680BD80B584B0F1
:1091400000AF78607868FFF7A3F80346BB810A2375
:10915000FB730DE0BB891946786807F059FD03469B
:10916000002B09D0012000F0D1FDFB7B013BFB73FC
:10917000FB7B002BEED100E000BF00BF1037BD46E7
:1091800080BD0000B0B58CB002AF64496448FFF701
:1091900038FF0346002B40F0BA80604B9B7903F503
:1091A000FA639AB25F4B1A805C4B5A795D4B9A70A6
:1091B0005A4B1A795B4BDA705A4B1B88594A917893
:1091C000584AD278184600F0D9FA034687F8233077
:1091D000554B3C461D460FCD0FC495E8070084E86B
:1091E000070000237B627B6A504A98184B4B9B78A0
:1091F0001A464A4B5B784E4908F07EFE02467B6A6F
:1092000013447B6207F11C0319464548FFF760FFD2
:109210000346002B10D17B6A444A9C18FB69184610
:10922000FFF7A2F902460B464249204608F064FEC9
:1092300002467B6A13447B627B6A3C4A13443E4984
:10924000184608F059FE02467B6A13447B627B6A2B
:10925000364A9818314B5B791946304B1B791C46BE
:109260002E4B9B7903F5FA6297F823309B00283345
:109270003B4453F8283C0193009223460A462F4969
:1092800008F03AFE02467B6A13447B622C4925486B
:1092900000F0B8FA0346002B1FD07B6A234A9818C7
:1092A000274BDB781D46264B9B78013B254A52F81D
:1092B0002320234B1B881C4697F82330224951F862
:1092C00023300193009413462A46204908F014FEE7
:1092D00002467B6A13447B620AE07B6A134A1344AA
:1092E0001B49184608F008FE02467B6A13447B625D
:1092F0007B6A0E4A13441749184608F0FDFD0246E2
:109300007B6A13447B620948FFF718FF02E01248AA
:10931000FFF714FF00BF2837BD46B0BD8003002013
:109320002C030020900300205442010894030020E5
:109330007841010888410108984101089C410108D1
:10934000880300200000002030000020B841010800
:10935000D0410108EC4101081842010880B500AF76
:1093600000F062FC00F05CF800F004F900F0C2F8D4
:1093700007F090FB4FF4FA6000F0C8FC1C48FFF7C0
:10938000DDFE1C48FFF7DAFE1B48FFF7D7FE1B483F
:10939000FFF7D4FE1A48FFF7D1FE1A48FFF7C3FDC6
:1093A0000346002B06D1184B01221A701748FFF70D
:1093B000C5FE08E01648FFF7C1FE1648FFF7BEFEDF
:1093C0001548FFF7BBFE104B1B78002BFBD000F0BD
:1093D00091FC0246114B1B68D31AB3F57A7FF2D386
:1093E00000F088FC03460D4A1360FFF7CBFEEAE766
:1093F000B4420108EC4201080C4301082C43010867
:10940000504301082C0300209804002088430108E1
:10941000B4430108E8430108F8430108940400201C
:1094200080B594B000AF07F1200330220021184628
:1094300008F0C7FD07F10C0300221A605A609A6019
:10944000DA601A610023BB60284B1B6C274A43F08B
:1094500080531364254B1B6C03F08053BB60BB68C7
:1094600000237B60224B1B68214A43F44043136076
:109470001F4B1B6803F440437B607B6801233B6206
:109480004FF480337B620223BB634FF48003FB63A2
:1094900008233B644FF4A8737B640223BB64072357
:1094A000FB6407F12003184603F032FB0346002B50
:1094B00001D000F095F80F23FB6002233B610023ED
:1094C0007B614FF4A053BB614FF48053FB6107F104
:1094D0000C030521184603F093FD0346002B01D031
:1094E00000F07EF800BF5037BD4680BD0038024016
:1094F0000070004080B500AF1B4B1C4A1A601A4B2D
:109500001B4A5A60184B00229A60174B0022DA60FF
:10951000154B4FF480421A61134B00225A61124BD3
:1095200000229A61104B0022DA610F4B00221A626E
:109530000D4800F0CDFE0346002B01D000F050F89E
:109540000021094802F016F80346002B01D000F074
:1095500047F80021044802F049F80346002B01D0E7
:1095600000F03EF800BF80BD2C03002000540040F6
:10957000A086010080B485B000AF0023FB60174BCC
:109580001B6B164A43F080031363144B1B6B03F0F1
:109590008003FB60FB680023BB60104B1B6B0F4A12
:1095A00043F0010313630D4B1B6B03F00103BB601E
:1095B000BB6800237B60094B1B6B084A43F0020326
:1095C0001363064B1B6B03F002037B607B6800BFD9
:1095D0001437BD465DF8047B704700BF0038024079
:1095E00080B400AF72B600BF00BFFDE780B483B0A7
:1095F00000AF0346FB80FB8803F003039BB2002B04
:109600000BD1FB88114AA2FB03125209642101FB12
:1096100002F29B1A9BB2002B0CD1FB880B4AA2FBD7
:109620000312D2094FF4C87101FB02F29B1A9BB2DC
:10963000002B01D1012300E0002303F00103DBB282
:1096400018460C37BD465DF8047B70471F85EB510B
:1096500080B582B000AF03460A46FB8013467B719B
:109660007B79022B08D1FB881846FFF7BFFF034622
:10967000002B01D01D2303E07B79013B024AD35C20
:1096800018460837BD4680BDAC49010880B483B098
:1096900000AF03460A46FB8013467B71FB88B3F597
:1096A000FA6F04D3FB8840F62A02934201D90023C3
:1096B00014E07B79002B02D07B790C2B01D900239D
:1096C0000CE0FB88A3F5FA627B79591E0648134625
:1096D0005B0013449B0003440B441B7818460C3773
:1096E000BD465DF8047B70476845010880B584B0CD
:1096F00000AF78600023FB6040F297737B8111E03C
:109700007B891846FFF772FF0346002B02D04FF407
:10971000B77301E040F26D13FA681344FB607B8974
:1097200001337B817B681B887A899A42E8D30123C5
:109730003B810FE07B681B883A89D2B211461846FC
:10974000FFF786FF03461A46FB681344FB603B891C
:1097500001333B817B689B781A463B899342E9D36E
:109760007B68DB781A46FB681344FB60FB68673B49
:10977000FB60FB6818461037BD4680BD80B485B0DD
:1097800000AF0346FB800B467B7113463B71FB88A1
:10979000FB817B79022B02D8FB89013BFB81FB8992
:1097A000FA89920892B21344FA891349A1FB021272
:1097B000520992B29B1AFA890F49A1FB0212D209EF
:1097C00092B213447A79013A0C498A5C1A443B7983
:1097D0001A440B4B83FB021313449910D317C91A75
:1097E0000B46DB005B1AD11ACBB218461437BD46C4
:1097F0005DF8047B704700BF1F85EB51B849010835
:109800009324499280B586B000AF786039604FF4F8
:10981000FA637B8201237B7401233B747B681B8882
:1098200040F29672934205D97B681B8840F2F17230
:10983000934201D9002346E07868FFF757FF78612B
:109840007B69002B25DA00233DE07A7C7B8A114678
:109850001846FFF71BFF0346FB73FB7B002B01D170
:10986000002330E0FB7B7A699A420FDDFB7B7A694B
:10987000D31A7B617B7C01337B747B7C0C2B08D9F6
:1098800001237B747B8A01337B8202E07B693B741A
:1098900002E07B69002BD8DC3B687A8A1A803B683F
:1098A0007A7C9A703B683A7CDA707B6818887B68AF
:1098B00099787B68DB781A46FFF760FF03461A4603
:1098C0003B681A71012318461837BD4680BD000059
:1098D00080B483B000AF00237B60104B5B6C0F4AF9
:1098E00043F4804353640D4B5B6C03F480437B6013
:1098F0007B6800233B60094B1B6C084A43F0805394
:109900001364064B1B6C03F080533B603B6800BF45
:109910000C37BD465DF8047B704700BF003802403D
:1099200080B58AB000AF786007F1140300221A6096
:109930005A609A60DA601A617B681B68194A934220
:109940002CD100233B61184B1B6B174A43F00203D9
:109950001363154B1B6B03F002033B613B694FF430
:1099600040737B611223BB610123FB6103233B62D4
:1099700004237B6207F1140319460C4800F0FCFA3B
:109980000023FB60084B1B6C074A43F4001313646D
:10999000054B1B6C03F40013FB60FB6800BF28370A
:1099A000BD4680BD00540040003802400004024023
:1099B00080B400AF00BFFDE780B400AF00BFFDE79B
:1099C00080B400AF00BFFDE780B400AF00BFFDE78B
:1099D00080B400AF00BFFDE780B400AF00BFBD465C
:1099E0005DF8047B704780B400AF00BFBD465DF8F2
:1099F000047B704780B400AF00BFBD465DF8047BB8
:109A0000704780B500AF00F061F900BF80BD000075
:109A100080B500AF024801F06CFF00BF80BD00BF01
:109A20008419002080B400AF01231846BD465DF8BC
:109A3000047B704780B582B000AF7860396008F071
:109A400013FB034616221A604FF0FF3318460837FF
:109A5000BD4680BD80B582B000AF78604FF0FF3169
:109A60007868FFF7E7FF00BFFDE780B586B000AF7D
:109A7000F860B9607A6000237B610AE0AFF3008090
:109A80000146BB685A1CBA60CAB21A707B690133BE
:109A90007B617A697B689A42F0DB7B6818461837ED
:109AA000BD4680BD80B586B000AFF860B9607A6011
:109AB00000237B6109E0BB685A1CBA601B7818461A
:109AC000AFF300807B6901337B617A697B689A42DE
:109AD000F1DB7B6818461837BD4680BD80B483B083
:109AE00000AF78604FF0FF3318460C37BD465DF885
:109AF000047B704780B483B000AF786039603B6806
:109B00004FF400525A60002318460C37BD465DF8EA
:109B1000047B704780B483B000AF7860012318469F
:109B20000C37BD465DF8047B704780B485B000AF4C
:109B3000F860B9607A60002318461437BD465DF8B6
:109B4000047B704780B586B000AF7860144A154B2F
:109B5000D31A7B617B693B61134B1B68002B02D1DD
:109B6000114B124A1A60104B1A687B6813443A6909
:109B70009A4207D208F078FA03460C221A604FF096
:109B8000FF3309E0084B1B68FB60074B1A687B68D2
:109B90001344054A1360FB6818461837BD4680BD5C
:109BA00000000320000400009C040020D8210020B5
:109BB00080B400AF064BD3F88830054A43F47003F5
:109BC000C2F8883000BFBD465DF8047B704700BF17
:109BD00000ED00E0DFF834D0FFF7EAFF0C480D4954
:109BE0000D4A002302E0D458C4500433C4188C42F8
:109BF000F9D30A4A0A4C002301E013600432A2425E
:109C0000FBD308F037FAFFF7A9FB704700000320E9
:109C10000000002010030020644D01081003002004
:109C2000D4210020FEE7000080B500AF0E4B1B687A
:109C30000D4A43F4007313600B4B1B680A4A43F44C
:109C400080631360084B1B68074A43F480731360FA
:109C5000032000F04FF90F2000F008F8FFF738FE5E
:109C60000023184680BD00BF003C024080B582B092
:109C700000AF7860124B1A68124B1B7819464FF4EC
:109C80007A73B3FBF1F3B2FBF3F3184600F067F914
:109C90000346002B01D001230EE07B680F2B0AD86E
:109CA000002279684FF0FF3000F02FF9064A7B68F8
:109CB0001360002300E0012318460837BD4680BD2D
:109CC0004C000020540000205000002080B400AF61
:109CD000064B1B781A46064B1B681344044A136054
:109CE00000BFBD465DF8047B704700BF54000020F4
:109CF000A004002080B400AF034B1B681846BD468B
:109D00005DF8047B704700BFA004002080B584B0DC
:109D100000AF7860FFF7EEFFB8607B68FB60FB6820
:109D2000B3F1FF3F05D00A4B1B781A46FB6813447A
:109D3000FB6000BFFFF7DEFF0246BB68D31AFA687C
:109D40009A42F7D800BF00BF1037BD4680BD00BFA4
:109D50005400002080B485B000AF78607B6803F0C9
:109D60000703FB600C4BDB68BB60BA684FF6FF0370
:109D70001340BB60FB681A02BB68134343F0BF6328
:109D800043F40033BB60044ABB68D36000BF1437A0
:109D9000BD465DF8047B704700ED00E080B400AF85
:109DA000044BDB681B0A03F007031846BD465DF849
:109DB000047B704700ED00E080B483B000AF034641
:109DC000FB7197F90730002B0BDBFB7903F01F02C7
:109DD000074997F907305B09012000FA02F241F8C0
:109DE000232000BF0C37BD465DF8047B704700BFE1
:109DF00000E100E080B483B000AF03463960FB713E
:109E000097F90730002B0ADB3B68DAB20C4997F967
:109E100007301201D2B20B4483F800230AE03B68FA
:109E2000DAB20849FB7903F00F03043B1201D2B206
:109E30000B441A7600BF0C37BD465DF8047B7047B3
:109E400000E100E000ED00E080B489B000AFF86010
:109E5000B9607A60FB6803F00703FB61FB69C3F13B
:109E60000703042B28BF0423BB61FB690433062BC3
:109E700002D9FB69033B00E000237B614FF0FF3216
:109E8000BB6902FA03F3DA43BB681A407B699A4064
:109E90004FF0FF317B6901FA03F3D9437B680B4034
:109EA000134318462437BD465DF8047B7047000015
:109EB00080B582B000AF78607B68013BB3F1807FF2
:109EC00001D301230FE00A4A7B68013B53600F2155
:109ED0004FF0FF30FFF78EFF054B00229A60044BD6
:109EE00007221A60002318460837BD4680BD00BF10
:109EF00010E000E080B582B000AF78607868FFF7CE
:109F000029FF00BF0837BD4680BD80B586B000AFD1
:109F10000346B9607A60FB7300237B61FFF73EFF65
:109F200078617A68B9687869FFF78EFF024697F919
:109F30000F3011461846FFF75DFF00BF1837BD46CA
:109F400080BD80B582B000AF0346FB7197F9073042
:109F50001846FFF731FF00BF0837BD4680BD80B50A
:109F600082B000AF78607868FFF7A2FF034618461A
:109F70000837BD4680BD000080B489B000AF78606E
:109F8000396000237B6100233B610023BB61002318
:109F9000FB6177E10122FB6902FA03F37B613B6815
:109FA0001B687A6913403B613A697B699A4240F0C9
:109FB00066813B685B6803F00303012B05D03B68B7
:109FC0005B6803F00303022B30D17B689B68BB61A5
:109FD000FB695B00032202FA03F3DB43BA69134017
:109FE000BB613B68DA68FB695B0002FA03F3BA699C
:109FF0001343BB617B68BA699A607B685B68BB612D
:10A000000122FB6902FA03F3DB43BA691340BB6127
:10A010003B685B681B0903F00102FB6902FA03F36A
:10A02000BA691343BB617B68BA695A603B685B6875
:10A0300003F00303032B17D07B68DB68BB61FB696C
:10A040005B00032202FA03F3DB43BA691340BB61EE
:10A050003B689A68FB695B0002FA03F3BA69134331
:10A06000BB617B68BA69DA603B685B6803F0030335
:10A07000022B23D1FB69DA087B68083253F82230BF
:10A08000BB61FB6903F007039B000F2202FA03F395
:10A09000DB43BA691340BB613B681A69FB6903F093
:10A0A00007039B0002FA03F3BA691343BB61FB6920
:10A0B000DA087B680832B96943F822107B681B68AC
:10A0C000BB61FB695B00032202FA03F3DB43BA695D
:10A0D0001340BB613B685B6803F00302FB695B00F4
:10A0E00002FA03F3BA691343BB617B68BA691A6069
:10A0F0003B685B6803F44033002B00F0C080002312
:10A10000FB60664B5B6C654A43F480435364634B6E
:10A110005B6C03F48043FB60FB68614AFB699B084E
:10A12000023352F82330BB61FB6903F003039B0049
:10A130000F2202FA03F3DB43BA691340BB617B6869
:10A14000584A934237D07B68574A934231D07B6854
:10A15000564A93422BD07B68554A934225D07B6860
:10A16000544A93421FD07B68534A934219D07B686C
:10A17000524A934213D07B68514A93420DD07B6878
:10A18000504A934207D07B684F4A934201D109233A
:10A1900012E00A2310E008230EE007230CE0062358
:10A1A0000AE0052308E0042306E0032304E0022379
:10A1B00002E0012300E00023FA6902F003029200AA
:10A1C0009340BA691343BB613549FB699B0802336D
:10A1D000BA6941F823203D4B9B68BB613B69DB4377
:10A1E000BA691340BB613B685B6803F48013002BC2
:10A1F00003D0BA693B691343BB61344ABB699360BE
:10A20000324BDB68BB613B69DB43BA691340BB611E
:10A210003B685B6803F40013002B03D0BA693B6909
:10A220001343BB61294ABB69D360284B5B68BB61A0
:10A230003B69DB43BA691340BB613B685B6803F46D
:10A240000033002B03D0BA693B691343BB611F4A3B
:10A25000BB6953601D4B1B68BB613B69DB43BA693B
:10A260001340BB613B685B6803F48033002B03D071
:10A27000BA693B691343BB61144ABB691360FB694C
:10A280000133FB61FB690F2B7FF684AE00BF00BF7B
:10A290002437BD465DF8047B704700BF003802409C
:10A2A0000038014000000240000402400008024063
:10A2B000000C02400010024000140240001802404E
:10A2C000001C02400020024000240240003C0140EB
:10A2D00080B584B000AF78607B68002B01D101238A
:10A2E0002BE17B6893F83D30DBB2002B06D17B6815
:10A2F000002283F83C207868FFF712FB7B68242259
:10A3000083F83D207B681B681A687B681B6822F015
:10A3100001021A607B681B681A687B681B6842F43C
:10A3200000421A607B681B681A687B681B6822F40D
:10A3300000421A6003F05CF8F8607B685B68814A51
:10A34000934207D8FB68804A934294BF01230023BD
:10A35000DBB206E0FB687D4A934294BF01230023F1
:10A36000DBB2002B01D00123E7E0FB68784AA2FBB7
:10A3700003239B0CBB607B681B685B6823F03F0179
:10A380007B681B68BA680A435A607B681B681B6A53
:10A3900023F03F017B685B686A4A934202D8BB683E
:10A3A000013309E0BB684FF4967202FB03F3694A7C
:10A3B000A2FB03239B0901337A6812680B431362E3
:10A3C0007B681B68DB6923F44F4222F0FF027B6845
:10A3D0005B685C498B4219D8FB68591E7B685B68D7
:10A3E0005B00B1FBF3F3591C40F6FC730B40002BF0
:10A3F0000AD0FB68591E7B685B685B00B1FBF3F316
:10A400000133C3F30B0351E004234FE07B689B68E7
:10A41000002B11D1FB68581E7B6859680B465B0006
:10A420000B44B0FBF3F30133C3F30B03002B0CBF5E
:10A4300001230023DBB212E0FB68581E7B685968D9
:10A440000B469B000B4499000B44B0FBF3F3013324
:10A45000C3F30B03002B0CBF01230023DBB2002B43
:10A4600001D0012322E07B689B68002B0ED1FB68A2
:10A47000581E7B6859680B465B000B44B0FBF3F336
:10A480000133C3F30B0343F400430FE0FB68581E92
:10A490007B6859680B469B000B4499000B44B0FB4A
:10A4A000F3F30133C3F30B0343F4404379680968C2
:10A4B0001343CB617B681B681B6823F0C0017B687A
:10A4C000DA697B681B6A1A437B681B680A431A6057
:10A4D0007B681B689B6823F4034323F0FF037A68BF
:10A4E00011697A68D26811437A6812680B439360E5
:10A4F0007B681B68DB6823F0FF017B685A697B6817
:10A500009B691A437B681B680A43DA607B681B6897
:10A510001A687B681B6842F001021A607B6800229F
:10A520001A647B68202283F83D207B6800221A632E
:10A530007B68002283F83E20002318461037BD4672
:10A5400080BD00BFA08601007F841E00FF083D0083
:10A5500083DE1B43D34D621080B588B002AFF86034
:10A56000084611461A4603467B810B463B8113463B
:10A57000FB80FFF7BFFB7861FB6893F83D30DBB2EF
:10A58000202B40F0D9807B690093192301226D496B
:10A59000F86800F0B9FD0346002B01D00223CCE09F
:10A5A000FB6893F83C30012B01D10223C5E0FB6826
:10A5B000012283F83C20FB681B681B6803F0010341
:10A5C000012B07D0FB681B681A68FB681B6842F008
:10A5D00001021A60FB681B681A68FB681B6822F49A
:10A5E00000621A60FB68212283F83D20FB6840224C
:10A5F00083F83E20FB6800221A64FB683A6A5A62BC
:10A60000FB68BA8C5A85FB685B8D9AB2FB681A8529
:10A61000FB684D4ADA62F8883A8979897B69019347
:10A62000BB6A00930346F86800F0F0FB0346002B7A
:10A6300052D0012381E07A69B96AF86800F07EFEA1
:10A640000346002B0DD0FB681B6C042B07D1FB6865
:10A650001B681A68FB681B6842F400721A600123C9
:10A660006BE0FB685B6A1A78FB681B681A61FB6821
:10A670005B6A5A1CFB685A62FB681B8D013B9AB2ED
:10A68000FB681A85FB685B8D9BB2013B9AB2FB6845
:10A690005A85FB681B685B6903F00403042B1BD11C
:10A6A000FB681B8D002B17D0FB685B6A1A78FB6870
:10A6B0001B681A61FB685B6A5A1CFB685A62FB687C
:10A6C0001B8D013B9AB2FB681A85FB685B8D9BB2C0
:10A6D000013B9AB2FB685A85FB681B8D002BAAD1FF
:10A6E0007A69B96AF86800F071FE0346002B0DD054
:10A6F000FB681B6C042B07D1FB681B681A68FB689E
:10A700001B6842F400721A60012316E0FB681B68A4
:10A710001A68FB681B6842F400721A60FB6820220A
:10A7200083F83D20FB68002283F83E20FB6800226E
:10A7300083F83C20002300E0022318461837BD466A
:10A7400080BD00BF020010000000FFFF80B58CB08C
:10A7500002AFF860084611461A4603467B810B4655
:10A760003B811346FB80FFF7C5FA7862FB6893F8DC
:10A770003D30DBB2202B40F014827B6A009319231A
:10A7800001227B49F86800F0BFFC0346002B01D092
:10A79000022307E2FB6893F83C30012B01D102232E
:10A7A00000E2FB68012283F83C20FB681B681B6801
:10A7B00003F00103012B07D0FB681B681A68FB68D4
:10A7C0001B6842F001021A60FB681B681A68FB688C
:10A7D0001B6822F400621A60FB68222283F83D2085
:10A7E000FB68402283F83E20FB6800221A64FB6865
:10A7F0003A6B5A62FB68BA8E5A85FB685B8D9AB2D7
:10A80000FB681A85FB685B4ADA62F8883A897989BD
:10A810007B6A0193BB6B00930346F86800F08CFBE6
:10A820000346002B01D00123BCE1FB681B8D002BEC
:10A8300013D100233B62FB681B685B693B62FB68CA
:10A840001B689B693B623B6AFB681B681A68FB6874
:10A850001B6842F400721A6090E1FB681B8D012BAB
:10A860001BD1FB681B681A68FB681B6822F48062B6
:10A870001A600023FB61FB681B685B69FB61FB6876
:10A880001B689B69FB61FB69FB681B681A68FB68B6
:10A890001B6842F400721A6070E1FB681B8D022B8A
:10A8A0001BD1FB681B681A68FB681B6822F4806276
:10A8B0001A60FB681B681A68FB681B6842F4006238
:10A8C0001A600023BB61FB681B685B69BB61FB68A6
:10A8D0001B689B69BB61BB6950E100237B61FB681E
:10A8E0001B685B697B61FB681B689B697B617B699B
:10A8F00044E1FB681B8D032B00F2F180FB681B8D8C
:10A90000012B23D17A6AB96BF86800F0A7FD0346E2
:10A91000002B01D0012345E1FB681B681A69FB6825
:10A920005B6AD2B21A70FB685B6A5A1CFB685A6297
:10A93000FB681B8D013B9AB2FB681A85FB685B8D37
:10A940009BB2013B9AB2FB685A8517E1FB681B8DED
:10A95000022B4ED17B6A0093BB6B00220649F8683C
:10A9600000F0D2FB0346002B08D001231AE100BF00
:10A97000020010000000FFFF04000100FB681B68DC
:10A980001A68FB681B6842F400721A60FB681B6857
:10A990001A69FB685B6AD2B21A70FB685B6A5A1C60
:10A9A000FB685A62FB681B8D013B9AB2FB681A85F3
:10A9B000FB685B8D9BB2013B9AB2FB685A85FB68D2
:10A9C0001B681A69FB685B6AD2B21A70FB685B6A23
:10A9D0005A1CFB685A62FB681B8D013B9AB2FB68EC
:10A9E0001A85FB685B8D9BB2013B9AB2FB685A8566
:10A9F000C4E07B6A0093BB6B00226C49F86800F0EE
:10AA000083FB0346002B01D00123CBE0FB681B68CE
:10AA10001A68FB681B6822F480621A60FB681B6876
:10AA20001A69FB685B6AD2B21A70FB685B6A5A1CCF
:10AA3000FB685A62FB681B8D013B9AB2FB681A8562
:10AA4000FB685B8D9BB2013B9AB2FB685A857B6ABF
:10AA50000093BB6B00225549F86800F055FB034694
:10AA6000002B01D001239DE0FB681B681A68FB687E
:10AA70001B6842F400721A60FB681B681A69FB6865
:10AA80005B6AD2B21A70FB685B6A5A1CFB685A6236
:10AA9000FB681B8D013B9AB2FB681A85FB685B8DD6
:10AAA0009BB2013B9AB2FB685A85FB681B681A6926
:10AAB000FB685B6AD2B21A70FB685B6A5A1CFB685F
:10AAC0005A62FB681B8D013B9AB2FB681A85FB68D2
:10AAD0005B8D9BB2013B9AB2FB685A854EE07A6A65
:10AAE000B96BF86800F0BAFC0346002B01D00123D3
:10AAF00058E0FB681B681A69FB685B6AD2B21A707F
:10AB0000FB685B6A5A1CFB685A62FB681B8D013B41
:10AB10009AB2FB681A85FB685B8D9BB2013B9AB2C7
:10AB2000FB685A85FB681B685B6903F00403042B10
:10AB300024D1FB681B8D032B07D1FB681B681A68A7
:10AB4000FB681B6822F480621A60FB681B681A6944
:10AB5000FB685B6AD2B21A70FB685B6A5A1CFB68BE
:10AB60005A62FB681B8D013B9AB2FB681A85FB6831
:10AB70005B8D9BB2013B9AB2FB685A85FB681B8DCB
:10AB8000002B7FF4B6AEFB68202283F83D20FB68E3
:10AB9000002283F83E20FB68002283F83C2000233B
:10ABA00000E0022318462837BD4680BD040001009E
:10ABB00080B58AB002AFF8607A603B600B467B815B
:10ABC000FFF798F8F8610023BB61FB6893F83D300C
:10ABD000DBB2202B40F01181FB6900931923012285
:10ABE0008849F86800F090FA0346002B01D0022350
:10ABF00004E1FB6893F83C30012B01D10223FDE016
:10AC0000FB68012283F83C20FB681B681B6803F08B
:10AC10000103012B07D0FB681B681A68FB681B68DF
:10AC200042F001021A60FB681B681A68FB681B6827
:10AC300022F400621A60FB68242283F83D20FB683E
:10AC400000221A64FB68704ADA62FB681B681A68A3
:10AC5000FB681B6842F480721A60FB6900933B68D2
:10AC600000224FF00111F86800F04EFA0346002B65
:10AC70000DD0FB681B681B6803F48073B3F5807FFD
:10AC800003D1FB684FF400721A640323B6E07B899A
:10AC9000DBB21A46FB681B6802F0FE021A61FFF77E
:10ACA00029F8F861FB681B685B6903F00203022B5B
:10ACB0000CBF01230023DBB2FB75FB681B685B69DB
:10ACC00003F48063B3F5806F0CBF01230023DBB274
:10ACD000BB7525E0FFF70EF80246FB69D31A3A6808
:10ACE0009A4202D33B68002B03D1FB68A02283F871
:10ACF0003D20FB681B685B6903F00203022B0CBF5D
:10AD000001230023DBB2FB75FB681B685B6903F45E
:10AD10008063B3F5806F0CBF01230023DBB2BB75EA
:10AD2000FB6893F83D30DBB2A02B05D0FB7D002BF8
:10AD300002D1BB7D002BCDD0FB68202283F83D20C3
:10AD4000FB681B685B6903F00203022B29D1FB68D7
:10AD50001B681A68FB681B6842F400721A600023C3
:10AD60003B61FB681B685B693B61FB681B689B6917
:10AD70003B613B69FB690093192301222149F86873
:10AD800000F0C2F90346002B01D0012336E0FB6836
:10AD9000202283F83D20FB68002283F83C2000231A
:10ADA0002CE0FB681B681A68FB681B6842F40072A1
:10ADB0001A60FB681B686FF480625A61FB6900933C
:10ADC000192301220F49F86800F09EF90346002B71
:10ADD00001D0012312E0BB690133BB61BA697B6812
:10ADE0009A42FFF432AFFB68202283F83D20FB68D3
:10ADF000002283F83C20012300E00223184620377C
:10AE0000BD4680BD020010000000FFFF80B588B085
:10AE100002AFF860084611461A4603467B810B468E
:10AE20003B811346FB80FB681B681A68FB681B6844
:10AE300042F480721A607B6A00933B6A00224FF0F2
:10AE40000111F86800F060F90346002B0DD0FB6893
:10AE50001B681B6803F48073B3F5807F03D1FB6824
:10AE60004FF400721A6403235FE07B89DBB21A4659
:10AE7000FB681B6802F0FE021A617B6A3A6A2D4980
:10AE8000F86800F0BBF90346002B01D001234CE029
:10AE900000237B61FB681B685B697B61FB681B6847
:10AEA0009B697B617B697A6A396AF86800F046FAC7
:10AEB0000346002B0DD0FB681B6C042B07D1FB68ED
:10AEC0001B681A68FB681B6842F400721A60012351
:10AED0002BE0FB88012B05D13B89DAB2FB681B68AC
:10AEE0001A6121E03B891B0A9BB2DAB2FB681B683E
:10AEF0001A617A6A396AF86800F020FA0346002B72
:10AF00000DD0FB681B6C042B07D1FB681B681A680B
:10AF1000FB681B6842F400721A60012305E03B895C
:10AF2000DAB2FB681B681A61002318461837BD4661
:10AF300080BD00BF0200010080B588B002AFF8609C
:10AF4000084611461A4603467B810B463B81134651
:10AF5000FB80FB681B681A68FB681B6842F4806210
:10AF60001A60FB681B681A68FB681B6842F48072F1
:10AF70001A607B6A00933B6A00224FF00111F86867
:10AF800000F0C2F80346002B0DD0FB681B681B685D
:10AF900003F48073B3F5807F03D1FB684FF4007234
:10AFA0001A640323AAE07B89DBB21A46FB681B689C
:10AFB00002F0FE021A617B6A3A6A5249F86800F0B0
:10AFC0001DF90346002B01D0012397E000237B618C
:10AFD000FB681B685B697B61FB681B689B697B6125
:10AFE0007B697A6A396AF86800F0A8F90346002B91
:10AFF0000DD0FB681B6C042B07D1FB681B681A681B
:10B00000FB681B6842F400721A60012376E0FB883B
:10B01000012B05D13B89DAB2FB681B681A6121E07C
:10B020003B891B0A9BB2DAB2FB681B681A617A6A19
:10B03000396AF86800F082F90346002B0DD0FB68EE
:10B040001B6C042B07D1FB681B681A68FB681B6824
:10B0500042F400721A60012350E03B89DAB2FB68C7
:10B060001B681A617A6A396AF86800F067F9034662
:10B07000002B0DD0FB681B6C042B07D1FB681B68F1
:10B080001A68FB681B6842F400721A60012335E0FD
:10B09000FB681B681A68FB681B6842F480721A60C0
:10B0A0007B6A00933B6A00224FF00111F86800F0C0
:10B0B0002BF80346002B0DD0FB681B681B6803F4BC
:10B0C0008073B3F5807F03D1FB684FF400721A647C
:10B0D000032313E07B89DBB243F00103DAB2FB68A0
:10B0E0001B681A617B6A3A6A0649F86800F086F8BC
:10B0F0000346002B01D0012300E000231846183737
:10B10000BD4680BD0200010080B584B000AFF8608C
:10B11000B9603B601346FB7148E03B68B3F1FF3F09
:10B1200044D0FEF7E7FD0246BB69D31A3A689A425B
:10B1300002D33B68002B39D1BB681B0CDBB2012B5F
:10B140000DD1FB681B685B69DA43BB6813409BB297
:10B15000002B0CBF01230023DBB21A460CE0FB6876
:10B160001B689B69DA43BB6813409BB2002B0CBF82
:10B1700001230023DBB21A46FB799A4216D1FB6801
:10B1800000221A63FB68202283F83D20FB6800221E
:10B1900083F83E20FB681B6C43F02002FB681A64B6
:10B1A000FB68002283F83C20012323E0BB681B0CD2
:10B1B000DBB2012B0DD1FB681B685B69DA43BB680E
:10B1C00013409BB2002B0CBF01230023DBB21A46B5
:10B1D0000CE0FB681B689B69DA43BB6813409BB2B9
:10B1E000002B0CBF01230023DBB21A46FB799A42E5
:10B1F00093D0002318461037BD4680BD80B584B07B
:10B2000000AFF860B9607A603B6071E0FB681B6872
:10B210005B6903F48063B3F5806F23D1FB681B681F
:10B220001A68FB681B6842F400721A60FB681B68AE
:10B230006FF480625A61FB6800221A63FB68202267
:10B2400083F83D20FB68002283F83E20FB681B6CDE
:10B2500043F00402FB681A64FB68002283F83C2078
:10B26000012367E07B68B3F1FF3F41D0FEF742FD69
:10B2700002463B68D31A7A689A4202D37B68002B55
:10B2800036D1BB681B0CDBB2012B0CD1FB681B68F1
:10B290005B69DA43BB6813409BB2002B14BF0123E8
:10B2A0000023DBB20BE0FB681B689B69DA43BB68D9
:10B2B00013409BB2002B14BF01230023DBB2002BF1
:10B2C00016D0FB6800221A63FB68202283F83D2019
:10B2D000FB68002283F83E20FB681B6C43F02002D1
:10B2E000FB681A64FB68002283F83C20012321E0FC
:10B2F000BB681B0CDBB2012B0CD1FB681B685B69C4
:10B30000DA43BB6813409BB2002B14BF0123002318
:10B31000DBB20BE0FB681B689B69DA43BB68134038
:10B320009BB2002B14BF01230023DBB2002B7FF460
:10B330006DAF002318461037BD4680BD80B584B080
:10B3400000AFF860B9607A6034E0F86800F0E3F8C4
:10B350000346002B01D0012334E0BB68B3F1FF3F6B
:10B3600028D0FEF7C7FC02467B68D31ABA689A4217
:10B3700002D3BB68002B1DD1FB681B685B6903F01F
:10B380008003802B16D0FB6800221A63FB68202202
:10B3900083F83D20FB68002283F83E20FB681B6C8D
:10B3A00043F02002FB681A64FB68002283F83C200B
:10B3B000012307E0FB681B685B6903F08003802BB7
:10B3C000C3D1002318461037BD4680BD80B584B078
:10B3D00000AFF860B9607A6034E0F86800F09BF87C
:10B3E0000346002B01D0012334E0BB68B3F1FF3FDB
:10B3F00028D0FEF77FFC02467B68D31ABA689A42CF
:10B4000002D3BB68002B1DD1FB681B685B6903F08E
:10B410000403042B16D0FB6800221A63FB68202269
:10B4200083F83D20FB68002283F83E20FB681B6CFC
:10B4300043F02002FB681A64FB68002283F83C207A
:10B44000012307E0FB681B685B6903F00403042B1E
:10B45000C3D1002318461037BD4680BD80B584B0E7
:10B4600000AFF860B9607A6049E0FB681B685B690F
:10B4700003F01003102B19D1FB681B686FF010024A
:10B480005A61FB6800221A63FB68202283F83D2082
:10B49000FB68002283F83E20FB681A6CFB681A6484
:10B4A000FB68002283F83C20012330E0FEF722FCF9
:10B4B00002467B68D31ABA689A4202D3BB68002B53
:10B4C0001DD1FB681B685B6903F04003402B16D05D
:10B4D000FB6800221A63FB68202283F83D20FB688A
:10B4E000002283F83E20FB681B6C43F02002FB68BF
:10B4F0001A64FB68002283F83C20012307E0FB6804
:10B500001B685B6903F04003402BAED10023184653
:10B510001037BD4680BD80B483B000AF78607B68D3
:10B520001B685B6903F48063B3F5806F1BD17B6894
:10B530001B686FF480625A617B6800221A637B6823
:10B54000202283F83D207B68002283F83E207B6820
:10B550001B6C43F004027B681A647B68002283F84A
:10B560003C20012300E0002318460C37BD465DF85F
:10B57000047B704780B483B000AF786039607B682B
:10B5800093F83D30DBB2202B29D17B68242283F84D
:10B590003D207B681B681A687B681B6822F00102EB
:10B5A0001A607B681B685A6A7B681B6822F010026D
:10B5B0005A627B681B68596A7B681B683A680A4351
:10B5C0005A627B681B681A687B681B6842F001023C
:10B5D0001A607B68202283F83D20002300E00223CC
:10B5E00018460C37BD465DF8047B704780B485B0C3
:10B5F00000AF786039600023FB817B6893F83D30B1
:10B60000DBB2202B2AD17B68242283F83D207B6883
:10B610001B681A687B681B6822F001021A607B684D
:10B620001B685B6AFB81FB8923F00F03FB813B688E
:10B630009AB2FB891343FB817B681B68FA895A62C3
:10B640007B681B681A687B681B6842F001021A60FD
:10B650007B68202283F83D20002300E00223184667
:10B660001437BD465DF8047B704780B586B002AFE5
:10B6700078607B68002B01D1012301E17B681B68A6
:10B68000BB607B6893F89534DBB2002B06D17B68F6
:10B69000002283F89424786805F002FC7B6803227A
:10B6A00083F89524BB68B3F1A04F02D17B680022D8
:10B6B0009A717B681B68184601F0C5FF7B681868A3
:10B6C0007B681A7C8DF8002004330ECB01F0A4FEB9
:10B6D0000346002B05D07B68022283F895240123C2
:10B6E000CEE07B681B680021184601F0BDFF0346D1
:10B6F000002B05D07B68022283F895240123BFE04C
:10B700000023FB734AE0FA7B79681346DB0013449D
:10B710009B000B44153301221A70FA7B796813469B
:10B72000DB0013449B000B441433FA7B1A70FA7B42
:10B73000FB7B98B279681346DB0013449B000B44F3
:10B740002E3302461A80FA7B79681346DB001344D5
:10B750009B000B44183300221A70FA7B7968134659
:10B76000DB0013449B000B441C3300221A60FA7B5D
:10B7700079681346DB0013449B000B4420330022FE
:10B780001A60FA7B79681346DB0013449B000B4474
:10B79000243300221A60FB7B0133FB737B681B7927
:10B7A000FA7B9A42AFD30023FB7344E0FA7B7968BB
:10B7B0001346DB0013449B000B4403F25523002285
:10B7C0001A70FA7B79681346DB0013449B000B4424
:10B7D00003F51573FA7B1A70FA7B79681346DB0060
:10B7E00013449B000B4403F5167300221A70FA7B76
:10B7F00079681346DB0013449B000B4403F5177371
:10B8000000221A60FA7B79681346DB0013449B0020
:10B810000B4403F5187300221A60FA7B796813460B
:10B82000DB0013449B000B4403F5197300221A60DC
:10B83000FB7B0133FB737B681B79FA7B9A42B5D3A0
:10B840007B6818687B681A7C8DF8002004330ECB67
:10B8500001F056FF0346002B05D07B68022283F8D7
:10B86000952401230CE07B6800225A747B68012236
:10B8700083F895247B681B68184602F0A0FF00231C
:10B8800018461037BD4680BD80B584B000AF7860E3
:10B890007B681B68FB607B6893F89434012B01D1B3
:10B8A000022322E07B68012283F89424FB68DB6892
:10B8B00003F04003002B09D07B685B7B012B05D193
:10B8C000FB689B6B43F48032FB689A637B681B6860
:10B8D000184601F0A7FE7B681B68184602F04EFF71
:10B8E0007B68002283F89424002318461037BD4655
:10B8F00080BD90B58DB000AF78607B681B683B62FF
:10B900003B6AFB617B681B68184603F00CF8034632
:10B91000002B40F08C847B681B68184602F070FF97
:10B920000346002B00F08284FB6903F500639B68EB
:10B930001B0AC3F30D027B68C3F8D4247B681B6821
:10B94000184602F05DFF034603F00203022B07D105
:10B950007B681B685A697B681B6802F002025A61A7
:10B960007B681B68184602F04BFF034603F0100388
:10B97000102B61D17B681B689A697B681B6822F079
:10B9800010029A613B6A1B6ABB61BB6903F00F023C
:10B990001346DB0013449B0003F514737A681344C9
:10B9A00004337B61BB6903F4F013B3F5802F24D11A
:10B9B000BA6947F6F0731340002B35D07B69D9681C
:10B9C000BB691B099BB2C3F30A039BB21A46386AD0
:10B9D00002F082FD7B69DA68BB691B09C3F30A03C5
:10B9E0001A447B69DA607B695A69BB691B09C3F336
:10B9F0000A031A447B695A6116E0BB6903F4F01329
:10BA0000B3F5402F10D17B6803F29C4308221946FE
:10BA1000386A02F061FD7B695A69BB691B09C3F38F
:10BA20000A031A447B695A617B681B689A697B68C0
:10BA30001B6842F010029A617B681B68184602F08E
:10BA4000DFFE034603F40023B3F5002F40F0A78088
:10BA500000237B627B681B68184602F0E4FEB86234
:10BA600099E0BB6A03F00103002B00F08E807B6835
:10BA70001B687A6AD2B21146184602F008FF386194
:10BA80003B6903F00103002B0CD07B6A5A01FB6970
:10BA9000134403F530631A4601239360796A78688A
:10BAA00000F0A4FE3B6903F00803002B0CD07B6A76
:10BAB0005A01FB69134403F530631A460823936067
:10BAC000796A786800F07AFF3B6903F01003002B75
:10BAD00008D07B6A5A01FB69134403F530631A46A8
:10BAE000102393603B6903F00203002B30D03B6AC4
:10BAF0005B6903F08003802B09D1FB6903F50063C8
:10BB00005B68FA6902F5006243F4806353607A6A05
:10BB10001346DB0013449B0003F514737A68134447
:10BB200004337B617B69DB78012B08D17B690022C0
:10BB3000DA707B6ADBB21946786805F0B7FA7B6A7F
:10BB40005A01FB69134403F530631A4602239360DC
:10BB50003B6903F02003002B08D07B6A5A01FB6984
:10BB6000134403F530631A46202393603B6903F4C2
:10BB70000053002B09D07B6A5A01FB69134403F57B
:10BB800030631A464FF4005393607B6A01337B6243
:10BB9000BB6A5B08BB62BB6A002B7FF462AF7B6849
:10BBA0001B68184602F02CFE034603F48023B3F50D
:10BBB000802F40F0DB807B681B68184602F04DFE4A
:10BBC000B86200237B62CDE0BB6A03F00103002B67
:10BBD00000F0C2807B681B687A6AD2B211461846B0
:10BBE00002F073FE38613B6903F00103002B57D06C
:10BBF0007B6A03F00F03012202FA03F3FB60FB6987
:10BC000003F500635A6BFB68DB43F96901F50061DA
:10BC100013404B637B6A5A01FB69134403F51063BD
:10BC20001A46012393607B689B79012B32D1796896
:10BC30007A6A1346DB0013449B000B4420331968D7
:10BC400078687A6A1346DB0013449B0003441C3374
:10BC50001B68194478687A6A1346DB0013449B001A
:10BC60000344203319607B6A002B13D179687A6A08
:10BC70001346DB0013449B000B4424331B68002B4A
:10BC800008D17B6818687B6803F29C431A4601213F
:10BC900002F07AFE7B6ADBB21946786805F081F91A
:10BCA0003B6903F00803002B08D07B6A5A01FB694B
:10BCB000134403F510631A46082393603B6903F0AD
:10BCC0001003002B08D07B6A5A01FB69134403F56B
:10BCD00010631A46102393603B6903F04003002B66
:10BCE00008D07B6A5A01FB69134403F510631A46B6
:10BCF000402393603B6903F00203002B23D0796A51
:10BD0000386A01F061FE7A6A1346DB0013449B0037
:10BD100010337A68134404337B617B69DB78012B31
:10BD200008D17B690022DA707B6ADBB21946786839
:10BD300005F0CEF97B6A5A01FB69134403F51063E1
:10BD40001A46022393603B6903F08003002B03D063
:10BD5000796A786800F0BDFC7B6A01337B62BB6A5C
:10BD60005B08BB62BB6A002B7FF42EAF7B681B684D
:10BD7000184602F045FD034603F00043B3F1004FBF
:10BD800022D1FB6903F500635B68FA6902F5006282
:10BD900023F0010353607B6893F8CC34012B08D166
:10BDA0007B68002283F8CC240021786800F0A4FE90
:10BDB00002E0786805F06CF97B681B685A697B685B
:10BDC0001B6802F000425A617B681B68184602F04B
:10BDD00017FD034603F40063B3F5006F12D1FB694E
:10BDE00003F500639B6803F00103012B02D178681F
:10BDF00005F028F97B681B685A697B681B6802F4A8
:10BE000000625A617B681B68184602F0F9FC034621
:10BE100003F48053B3F5805F40F0B780FB6903F50E
:10BE200000635B68FA6902F5006223F00103536066
:10BE30007B681B681021184601F0C6FD0023FB62D9
:10BE400046E0FB6A5A01FB69134403F510631A4686
:10BE50004FF67F339360FB6A5A01FB69134403F585
:10BE600010631B68FA6A5101FA690A4402F510620C
:10BE700023F400131360FB6A5A01FB69134403F5B2
:10BE800030631A464FF67F339360FB6A5A01FB69B1
:10BE9000134403F530631B68FA6A5101FA690A44D6
:10BEA00002F5306223F400131360FB6A5A01FB6948
:10BEB000134403F530631B68FA6A5101FA690A44B6
:10BEC00002F5306243F000631360FB6A0133FB62EA
:10BED0007B681B791A46FB6A9342B2D3FB6903F570
:10BEE0000063DB69FA6902F5006243F00113D36174
:10BEF0007B68DB7B002B16D0FB6903F50063D3F86E
:10BF00008430FA6902F5006243F00B03C2F8843012
:10BF1000FB6903F500635B6CFA6902F5006243F0AC
:10BF20000B03536415E0FB6903F500635B69FA6971
:10BF300002F5006243F4005343F02B035361FB69A5
:10BF400003F500631B69FA6902F5006243F00B0315
:10BF50001361FB6903F500631B68FA6902F500626F
:10BF600023F4FE6313607B6818687B6899797B68AB
:10BF700003F29C431A4602F007FD7B681B685A696E
:10BF80007B681B6802F480525A617B681B68184604
:10BF900002F036FC034603F40053B3F5005F23D1EF
:10BFA0007B681B68184602F0CCFC7B681B6818464F
:10BFB00001F083FD03461A467B68DA717B681C68D2
:10BFC00001F00AFA01467B68DB791A46204601F047
:10BFD00087FA786805F00DF87B681B685A697B68FA
:10BFE0001B6802F400525A617B681B68184602F015
:10BFF00007FC034603F00803082B0AD1786804F015
:10C00000EAFF7B681B685A697B681B6802F00802BC
:10C010005A617B681B68184602F0F2FB034603F086
:10C020008003802B23D13B6A9B6923F080023B6A0B
:10C030009A6101237B6214E079687A6A1346DB0017
:10C0400013449B000B4403F257231B78012B05D1AB
:10C050007B6ADBB21946786800F00AFB7B6A013321
:10C060007B627B681B791A467B6A9342E4D37B68C8
:10C070001B68184602F0C4FB034603F48013B3F5B3
:10C08000801F3CD101237B622BE07B6A5A01FB6954
:10C09000134403F510631B68BB6179687A6A134621
:10C0A000DB0013449B000B4418331B78012B15D184
:10C0B000BB69002B12DA79687A6A1346DB001344F5
:10C0C0009B000B44173301221A707B6ADBB263F0CA
:10C0D0007F03DBB21946786800F0CAFA7B6A013345
:10C0E0007B627B681B791A467B6A9342CDD37B685F
:10C0F0001B685A697B681B6802F480125A617B686E
:10C100001B68184602F07CFB034603F40013B3F5EA
:10C11000001F56D101237B6245E07B6A5A01FB690F
:10C12000134403F530631B68BB6179687A6A134670
:10C13000DB0013449B000B4403F516731B78012BA3
:10C140002ED1BB69002B2BDABB691A0C7B68D3F8A4
:10C15000D434534003F00103002B21D179687A6A6B
:10C160001346DB0013449B000B4403F257230122C8
:10C170001A703B6A9B6943F080023B6A9A613B6A92
:10C180005B6903F08003002B0AD1FB6903F50063B0
:10C190005B68FA6902F5006243F40073536008E0DB
:10C1A0007B6A01337B627B681B791A467B6A934208
:10C1B000B3D37B681B685A697B681B6802F4001262
:10C1C0005A617B681B68184602F01AFB034603F0AD
:10C1D0008043B3F1804F0AD1786804F08BFF7B680D
:10C1E0001B685A697B681B6802F080425A617B6851
:10C1F0001B68184602F004FB034603F00403042BFB
:10C2000015D17B681B685B68BB61BB6903F00403E5
:10C21000002B02D0786804F07BFF7B681B685968AC
:10C220007B681B68BA690A435A6000E000BF343774
:10C23000BD4690BD80B582B000AF78600B46FB7004
:10C240007B6893F89434012B01D1022312E07B68C0
:10C25000012283F894247B68FA785A747B681B68FF
:10C26000FA781146184602F063FA7B68002283F8D8
:10C270009424002318460837BD4680BD80B584B09D
:10C2800000AF7860084611461A460346FB700B461D
:10C290003B801346BB700023FB7297F90330002BE1
:10C2A0000FDAFB7803F00F021346DB0013449B0008
:10C2B00010337A6813440433FB60FB6801225A7020
:10C2C0000FE0FB7803F00F021346DB0013449B00E2
:10C2D00003F514737A6813440433FB60FB6800228F
:10C2E0005A70FB7803F00F03DAB2FB681A703B88D0
:10C2F000C3F30A02FB689A60FB68BA781A71FB689C
:10C300005B78002B04D0FB681B781A46FB685A83C5
:10C31000BB78022B02D1FB6800225A717B6893F82C
:10C320009434012B01D102230EE07B68012283F8B3
:10C3300094247B681B68F968184601F0E3FB7B686E
:10C34000002283F89424FB7A18461037BD4680BD3E
:10C3500080B584B000AF78600B46FB7097F903306E
:10C36000002B0FDAFB7803F00F021346DB001344B7
:10C370009B0010337A6813440433FB60FB6801228E
:10C380005A700FE0FB7803F00F021346DB001344F2
:10C390009B0003F514737A6813440433FB60FB6855
:10C3A00000225A70FB7803F00F03DAB2FB681A70B0
:10C3B0007B6893F89434012B01D102230EE07B6853
:10C3C000012283F894247B681B68F968184601F001
:10C3D00021FC7B68002283F8942400231846103740
:10C3E000BD4680BD80B586B000AFF8607A603B6026
:10C3F0000B46FB72FB7A03F00F021346DB0013447B
:10C400009B0003F51473FA68134404337B617B6962
:10C410007A68DA607B693A681A617B6900225A613E
:10C420007B6900225A70FB7A03F00F03DAB27B6952
:10C430001A70FB689B79012B02D17A687B69DA61FB
:10C44000FB681868FB689B791A46796901F0BEFCA5
:10C45000002318461837BD4680BD80B483B000AFB6
:10C4600078600B46FB70FB7803F00F027968134687
:10C47000DB0013449B000B4403F51A731B6818463A
:10C480000C37BD465DF8047B704780B586B000AFC1
:10C49000F8607A603B600B46FB72FB7A03F00F0298
:10C4A0001346DB0013449B001033FA681344043333
:10C4B0007B617B697A68DA607B693A681A617B69BB
:10C4C00000225A617B6901225A70FB7A03F00F0344
:10C4D000DAB27B691A70FB689B79012B02D17A680A
:10C4E0007B69DA61FB681868FB689B791A46796991
:10C4F00001F06CFC002318461837BD4680BD80B59E
:10C5000084B000AF78600B46FB70FB7803F00F033C
:10C510007A681279934201D901234FE097F90330E9
:10C52000002B0FDAFB7803F00F021346DB001344F5
:10C530009B0010337A6813440433FB60FB680122CC
:10C540005A700DE0FA781346DB0013449B0003F5A4
:10C5500014737A6813440433FB60FB6800225A703A
:10C56000FB6801229A70FB7803F00F03DAB2FB68D4
:10C570001A707B6893F89434012B01D102231DE0DB
:10C580007B68012283F894247B681B68F96818464D
:10C5900001F0FAFFFB7803F00F03002B09D17B6851
:10C5A00018687B6899797B6803F29C431A4602F00D
:10C5B000EBF97B68002283F8942400231846103797
:10C5C000BD4680BD80B584B000AF78600B46FB707F
:10C5D000FB7803F00F037A681279934201D90123A3
:10C5E00042E097F90330002B0FDAFB7803F00F02DB
:10C5F0001346DB0013449B0010337A681344043362
:10C60000FB60FB6801225A700FE0FB7803F00F0219
:10C610001346DB0013449B0003F514737A6813443C
:10C620000433FB60FB6800225A70FB6800229A709A
:10C63000FB7803F00F03DAB2FB681A707B6893F89B
:10C640009434012B01D102230EE07B68012283F890
:10C6500094247B681B68F968184602F003F87B682D
:10C66000002283F89424002318461037BD4680BD6D
:10C6700080B584B000AF78600B46FB7097F903304B
:10C68000002B0CDAFB7803F00F021346DB00134497
:10C690009B0010337A6813440433FB600CE0FB7892
:10C6A00003F00F021346DB0013449B0003F51473E1
:10C6B0007A6813440433FB607B681B68F96818468A
:10C6C00001F022FE0346FB72FB7A18461037BD4686
:10C6D00080BD80B58AB002AF786039607B681B6826
:10C6E0007B617B693B613A681346DB0013449B0026
:10C6F00010337A6813440433FB60FB685A69FB68A3
:10C700001B699A4201D901236BE0FB681A69FB6837
:10C710005B69D31AFB61FB689B68FA699A4202D98C
:10C72000FB689B68FB61FB6903339B08BB612AE0E4
:10C73000FB681A69FB685B69D31AFB61FB689B683D
:10C74000FA699A4202D9FB689B68FB61FB69033373
:10C750009B08BB61FB68D9683B68DAB2FB6998B299
:10C760007B689B7900930346786901F077FEFB684C
:10C77000DA68FB691A44FB68DA60FB685A69FB698E
:10C780001A44FB685A613B685A013B69134403F53C
:10C7900010639B699BB2BA699A4209D8FB685A69CF
:10C7A000FB681B699A4203D2FB681B69002BBFD14F
:10C7B000FB681A69FB685B699A4211D83B6803F011
:10C7C0000F03012202FA03F3BB603B6903F5006328
:10C7D0005A6BBB68DB43396901F5006113404B6359
:10C7E000002318462037BD4680BD000080B588B0C4
:10C7F00000AF786039607B681B68FB61FB69BB61D7
:10C80000FB693C3304331B687B613B685A01BB699D
:10C81000134403F530639B683B617B689B79012B74
:10C820007BD13B6903F00803002B15D07B69614A7B
:10C83000934240F2B9803B6903F40043002B00F0BF
:10C84000B3803B685A01BB69134403F530631A4651
:10C850004FF400439360A7E03B6903F02003002BF3
:10C8600009D03B685A01BB69134403F530631A468B
:10C870002023936098E03B6903F02803002B40F0ED
:10C8800093807B694B4A93420FD93B6903F4004381
:10C89000002B0AD03B685A01BB69134403F530638F
:10C8A0001A464FF4004393607EE03A681346DB007B
:10C8B00013449B0003F514737A6813440433FB603C
:10C8C000FB681A6A3B685901BB690B4403F5306386
:10C8D0001B69C3F31203D21AFB685A613B68002B31
:10C8E00014D1FB681B69002B09D17B6818687B6831
:10C8F00003F29C431A46012102F046F806E0FB6869
:10C90000DA68FB685B691A44FB68DA603B68DBB293
:10C910001946786804F02AFB46E07B69264A934270
:10C9200024D13B6903F40043002B0AD03B685A0131
:10C93000BB69134403F530631A464FF40043936018
:10C9400032E03B6903F02003002B08D03B685A011A
:10C95000BB69134403F530631A46202393603B6898
:10C96000DBB21946786804F001FB1DE03B68002B40
:10C9700014D179683A681346DB0013449B000B44DA
:10C9800003F519731B68002B08D17B6818687B6856
:10C9900003F29C431A46002101F0F6FF3B68DBB22C
:10C9A0001946786804F0E2FA002318462037BD469D
:10C9B00080BD00BF0A30544F0A31544F80B586B055
:10C9C00000AF786039607B681B687B617B693B6185
:10C9D0007B693C3304331B68FB603B685A013B694D
:10C9E000134403F530639B68BB60FB68154A9342B0
:10C9F0000ED9BB6803F40043002B09D03B685A01F1
:10CA00003B69134403F530631A464FF400439360C7
:10CA1000786804F099FAFB680A4A93420CD97B685B
:10CA20009B79012B08D17B6818687B6803F29C43D3
:10CA30001A46012101F0A8FF002318461837BD4609
:10CA400080BD00BF0A30544F80B485B000AF78601D
:10CA50000B46FB7013463B807B681B685B6ABB60C0
:10CA6000FB78002B07D13B8819047B681B68BA68E8
:10CA70000A439A6228E07B681B689B6A1B0CBA68B1
:10CA80001344BB600023FB730DE07B681A68FB7BDB
:10CA900040339B0013445B681B0CBA681344BB60B3
:10CAA000FB7B0133FB73FA7BFB78013B9A42ECD3AF
:10CAB0003B8818047B681968FB78013BBA6802431D
:10CAC00040339B000B445A60002318461437BD4680
:10CAD0005DF8047B704780B483B000AF78600B468C
:10CAE0007B807B681B687A885A62002318460C3763
:10CAF000BD465DF8047B704780B483B000AF7860BA
:10CB00000B46FB7000BF0C37BD465DF8047B7047D9
:10CB100080B586B000AF78607B68002B01D101231F
:10CB200067E27B681B6803F00103002B75D0884B1C
:10CB30009B6803F00C03042B0CD0854B9B6803F01F
:10CB40000C03082B12D1824B5B6803F48003B3F50E
:10CB5000800F0BD17E4B1B6803F40033002B5BD09E
:10CB60007B685B68002B57D1012342E27B685B68DE
:10CB7000B3F5803F06D1764B1B68754A43F480338A
:10CB800013601DE07B685B68B3F5A02F0CD1704B80
:10CB90001B686F4A43F4802313606D4B1B686C4A1B
:10CBA00043F4803313600BE0694B1B68684A23F43D
:10CBB00080331360664B1B68654A23F4802313603F
:10CBC0007B685B68002B13D0FDF794F8386108E0B0
:10CBD000FDF790F802463B69D31A642B01D9032371
:10CBE00007E25B4B1B6803F40033002BF0D014E02A
:10CBF000FDF780F8386108E0FDF77CF802463B69F4
:10CC0000D31A642B01D90323F3E1514B1B6803F4BE
:10CC10000033002BF0D100E000BF7B681B6803F0FD
:10CC20000203002B63D04A4B9B6803F00C03002BDC
:10CC30000BD0474B9B6803F00C03082B1CD1444BD3
:10CC40005B6803F48003002B16D1414B1B6803F093
:10CC50000203002B05D07B68DB68012B01D0012388
:10CC6000C7E13B4B1B6823F0F8027B681B69DB00C4
:10CC7000374913430B603AE07B68DB68002B20D018
:10CC8000344B01221A60FDF735F8386108E0FDF7F2
:10CC900031F802463B69D31A022B01D90323A8E1DC
:10CCA0002B4B1B6803F00203002BF0D0284B1B68B2
:10CCB00023F0F8027B681B69DB00254913430B60F6
:10CCC00015E0244B00221A60FDF714F8386108E0E3
:10CCD000FDF710F802463B69D31A022B01D9032352
:10CCE00087E11B4B1B6803F00203002BF0D17B682C
:10CCF0001B6803F00803002B36D07B685B69002BB0
:10CD000016D0154B01221A60FCF7F4FF386108E0D9
:10CD1000FCF7F0FF02463B69D31A022B01D903232B
:10CD200067E10B4B5B6F03F00203002BF0D01BE0BD
:10CD3000094B00221A60FCF7DDFF38610EE0FCF7BA
:10CD4000D9FF02463B69D31A022B07D9032350E1CE
:10CD50000038024000004742800E4742884B5B6F1C
:10CD600003F00203002BEAD17B681B6803F0040385
:10CD7000002B00F097800023FB75814B1B6C03F0A8
:10CD80008053002B0FD10023BB607D4B1B6C7C4A72
:10CD900043F0805313647A4B1B6C03F08053BB60E9
:10CDA000BB680123FB75774B1B6803F48073002B72
:10CDB00018D1744B1B68734A43F480731360FCF7FB
:10CDC00099FF386108E0FCF795FF02463B69D31AEA
:10CDD000022B01D903230CE16A4B1B6803F4807317
:10CDE000002BF0D07B689B68012B06D1644B1B6F36
:10CDF000634A43F0010313671CE07B689B68052BC3
:10CE00000CD15F4B1B6F5E4A43F0040313675C4B0E
:10CE10001B6F5B4A43F0010313670BE0584B1B6F1A
:10CE2000574A23F001031367554B1B6F544A23F0F5
:10CE3000040313677B689B68002B15D0FCF75AFF2F
:10CE400038610AE0FCF756FF02463B69D31A41F20B
:10CE50008832934201D90323CBE0494B1B6F03F087
:10CE60000203002BEED014E0FCF744FF38610AE027
:10CE7000FCF740FF02463B69D31A41F288329342E5
:10CE800001D90323B5E03E4B1B6F03F00203002BD7
:10CE9000EED1FB7D012B05D1394B1B6C384A23F0B9
:10CEA000805313647B689B69002B00F0A180344B96
:10CEB0009B6803F00C03082B5CD07B689B69022BFA
:10CEC00041D1314B00221A60FCF714FF386108E0B1
:10CED000FCF710FF02463B69D31A022B01D903234A
:10CEE00087E0274B1B6803F00073002BF0D17B68B1
:10CEF000DA697B681B6A1A437B685B6A9B011A4389
:10CF00007B689B6A5B08013B1B041A437B68DB6AF6
:10CF10001B061B4913434B601B4B01221A60FCF795
:10CF2000E9FE386108E0FCF7E5FE02463B69D31AEA
:10CF3000022B01D903235CE0114B1B6803F0007343
:10CF4000002BF0D054E0104B00221A60FCF7D2FE08
:10CF5000386108E0FCF7CEFE02463B69D31A022B8B
:10CF600001D9032345E0064B1B6803F00073002B37
:10CF7000F0D13DE07B689B69012B07D1012338E0AC
:10CF80000038024000700040600047421B4B5B6865
:10CF9000FB607B689B69012B28D0FB6803F480024F
:10CFA0007B68DB699A4221D1FB6803F03F027B6812
:10CFB0001B6A9A421AD1FA6847F6C07313407A681E
:10CFC000526A9201934211D1FB6803F440327B68AC
:10CFD0009B6A5B08013B1B049A4207D1FB6803F084
:10CFE00070627B68DB6A1B069A4201D0012300E075
:10CFF000002318461837BD4680BD00BF00380240E8
:10D0000080B584B000AF786039607B68002B01D1B7
:10D010000123CCE0684B1B6803F00F033A689A4287
:10D020000CD9654B3A68D2B21A70634B1B6803F097
:10D030000F033A689A4201D00123B8E07B681B686D
:10D0400003F00203002B20D07B681B6803F004036D
:10D05000002B05D0594B9B68584A43F4E05393602A
:10D060007B681B6803F00803002B05D0534B9B68BB
:10D07000524A43F460439360504B9B6823F0F002A4
:10D080007B689B684D4913438B607B681B6803F08A
:10D090000103002B44D07B685B68012B07D1474B11
:10D0A0001B6803F40033002B19D101237FE07B6858
:10D0B0005B68022B03D07B685B68032B07D13F4B77
:10D0C0001B6803F00073002B09D101236FE03B4B79
:10D0D0001B6803F00203002B01D1012367E0374BEB
:10D0E0009B6823F003027B685B68344913438B60C1
:10D0F000FCF700FEF8600AE0FCF7FCFD0246FB6866
:10D10000D31A41F28832934201D903234FE02B4BCB
:10D110009B6803F00C027B685B689B009A42EBD132
:10D12000254B1B6803F00F033A689A420CD2224B3E
:10D130003A68D2B21A70204B1B6803F00F033A68AA
:10D140009A4201D0012332E07B681B6803F004039C
:10D15000002B08D0194B9B6823F4E0527B68DB68F6
:10D16000164913438B607B681B6803F00803002B90
:10D1700009D0124B9B6823F460427B681B69DB007B
:10D180000E4913438B6000F021F802460B4B9B685D
:10D190001B0903F00F030A49CB5C22FA03F3094A87
:10D1A0001360094B1B681846FCF760FD0023184606
:10D1B0001037BD4680BD00BF003C02400038024031
:10D1C000C44901084C000020500000202DE9B04F58
:10D1D00094B000AF00237B640023FB6400233B6416
:10D1E0000023BB64794B9B6803F00C03082B0DD024
:10D1F000082B00F2E180002B02D0042B03D0DBE0EF
:10D20000734BBB64DBE0734BBB64D8E06F4B5B6874
:10D2100003F03F037B646D4B5B6803F48003002BDA
:10D2200063D06A4B5B689B090022BB63FA63BB6BEC
:10D23000C3F308033B6300237B63D7E90C45224615
:10D240002B464FF000004FF00001590141EAD26136
:10D25000500102460B462146511A3961294663EBBB
:10D2600001037B614FF000024FF00003D7E904ABEC
:10D2700059468B01514643EA916351468A01514612
:10D28000B2EB0108594663EB01094FF000024FF081
:10D2900000034FEAC90343EA58734FEAC8029046B5
:10D2A0009946234618EB0303BB602B4649EB030367
:10D2B000FB604FF000024FF00003D7E9024529461A
:10D2C0004B02214643EAD15321464A0210461946F1
:10D2D0007B6C0022BB62FA62D7E90A23FBF774FC7D
:10D2E00002460B461346FB6458E0384B5B689B09CB
:10D2F000002218461146C0F308033B6200237B62FC
:10D30000D7E9088942464B464FF000004FF0000134
:10D31000590141EAD261500102460B464146B2EB47
:10D32000010A494663EB010B4FF000024FF0000386
:10D330004FEA8B1343EA9A634FEA8A12B2EB0A046C
:10D3400063EB0B054FF000024FF00003EB0043EAE4
:10D350005473E20014461D464346E3183B604B46B7
:10D3600045EB03037B604FF000024FF00003D7E969
:10D37000004529468B02214643EA915321468A0201
:10D38000104619467B6C0022BB61FA61D7E906237F
:10D39000FBF71AFC02460B461346FB640B4B5B681B
:10D3A0001B0C03F0030301335B003B64FA6C3B6C22
:10D3B000B2FBF3F3BB6402E0054BBB6400BFBB6C84
:10D3C00018465037BD46BDE8B08F00BF0038024058
:10D3D0000024F40000127A0080B400AF034B1B68F5
:10D3E0001846BD465DF8047B704700BF4C00002026
:10D3F00080B500AFFFF7F0FF0246054B9B689B0A24
:10D4000003F007030349CB5C22FA03F3184680BDFF
:10D4100000380240D449010884B080B584B000AF20
:10D42000786007F11C0080E80E0097F82130012B8E
:10D4300023D17B689B6B23F480327B689A637B6883
:10D44000DB6823F4840323F040037A68D3607B68AD
:10D45000DB6823F440127B68DA6097F82830012BF0
:10D4600005D17B68DB6843F480127B68DA607868FA
:10D4700001F0E8FA0346FB731BE07B68DB6843F0CE
:10D4800040027B68DA60786801F0DCFA0346FB73DF
:10D4900097F82530002B06D17B689B6B43F48032D4
:10D4A0007B689A6305E07B689B6B23F480327B6822
:10D4B0009A63BB7F012B0BD17B689B6843F006020C
:10D4C0007B689A607B689B6843F020027B689A6067
:10D4D000FB7B18461037BD46BDE8804004B070475E
:10D4E00080B487B000AFF860B9601346FB71FB7978
:10D4F000022B65D1BB68414A934206D9BB68404ABA
:10D50000934202D20F237B6162E0BB683C4A9342A4
:10D5100006D3BB683B4A934202D20E237B6157E09D
:10D52000BB68384A934206D3BB68374A934202D25B
:10D530000D237B614CE0BB68334A934206D3BB6842
:10D54000324A934202D80C237B6141E0BB682F4AE8
:10D55000934206D9BB682E4A934202D80B237B61C3
:10D5600036E0BB682A4A934206D9BB68294A9342EF
:10D5700002D80A237B612BE0BB68264A934206D976
:10D58000BB68254A934202D209237B6120E0BB6835
:10D59000214A934206D3BB68204A934202D808230B
:10D5A0007B6115E0BB681D4A934206D9BB681C4AE3
:10D5B000934202D207237B610AE006237B6107E0E6
:10D5C000FB79002B02D109237B6101E009237B61F8
:10D5D000FB68DB6823F47052FB68DA60FB68DA688A
:10D5E0007B699B0203F470531A43FB68DA600023E3
:10D5F00018461C37BD465DF8047B7047BFACD800A9
:10D60000C0E1E4000024F400807306019F491A0180
:10D61000FF2C31013FA44C0100366E011FABA60167
:10D620000048E80180B483B000AF78607B689B68F5
:10D6300043F001027B689A60002318460C37BD4610
:10D640005DF8047B704780B483B000AF78607B687E
:10D650009B6823F001027B689A60002318460C3710
:10D66000BD465DF8047B704780B584B000AF78603C
:10D670000B46FB700023FB607B68DB6823F0C04235
:10D680007B68DA60FB78012B15D17B68DB6843F09F
:10D6900000527B68DA600A20FCF738FBFB680A332B
:10D6A000FB60786801F03FF90346012B1ED0FB6850
:10D6B000C72BF0D91AE0FB78002B15D17B68DB680B
:10D6C00043F080427B68DA600A20FCF71FFBFB68AE
:10D6D0000A33FB60786801F026F90346002B05D079
:10D6E000FB68C72BF0D901E0012305E0FB68C82BDC
:10D6F00001D1012300E0002318461037BD4680BD4C
:10D7000084B080B586B000AF786007F1240080E86F
:10D710000E000023FB757B68FB6000233B6109E082
:10D720007A683B6940339B00134400225A603B698E
:10D7300001333B613B690E2BF2D997F82E30002B59
:10D740001CD1FB6803F500635B68FA6802F50062B0
:10D7500043F0020353607B689B6B43F400127B68C9
:10D760009A637B689B6B23F400227B689A637B68D7
:10D770009B6B23F480227B689A630BE07B689B6B36
:10D7800023F400127B689A637B689B6B43F400224E
:10D790007B689A63FB6803F560631A460023136095
:10D7A00097F82930012B0DD197F82730002B04D1A1
:10D7B0000021786800F068F908E00121786800F03D
:10D7C00063F903E00321786800F05EF910217868BE
:10D7D00000F0FAF80346002B01D00123FB757868AE
:10D7E00000F024F90346002B01D00123FB75FB68F0
:10D7F00003F500631A4600231361FB6803F5006319
:10D800001A4600235361FB6803F500631A460023A0
:10D81000D36100233B6143E03B695A01FB68134439
:10D8200003F510631B6803F00043B3F1004F18D1F8
:10D830003B69002B0AD13B695A01FB68134403F58D
:10D8400010631A464FF00063136013E03B695A01FE
:10D85000FB68134403F510631A464FF090431360BE
:10D8600008E03B695A01FB68134403F510631A464C
:10D87000002313603B695A01FB68134403F51063EE
:10D880001A46002313613B695A01FB68134403F5F0
:10D8900010631A464FF67F3393603B6901333B6157
:10D8A00097F824301A463B699342B5D300233B6175
:10D8B00043E03B695A01FB68134403F530631B687E
:10D8C00003F00043B3F1004F18D13B69002B0AD19C
:10D8D0003B695A01FB68134403F530631A464FF065
:10D8E0000063136013E03B695A01FB68134403F5BE
:10D8F00030631A464FF09043136008E03B695A01C9
:10D90000FB68134403F530631A46002313603B6938
:10D910005A01FB68134403F530631A460023136170
:10D920003B695A01FB68134403F530631A464FF60E
:10D930007F3393603B6901333B6197F824301A468B
:10D940003B699342B5D3FB6803F500631B69FA6832
:10D9500002F5006223F4807313617B6800229A61F0
:10D960007B686FF080425A6197F82630002B05D112
:10D970007B689B6943F010027B689A617B689A69B7
:10D98000104B13437A68936197F82A30002B05D027
:10D990007B689B6943F008027B689A6197F82E3098
:10D9A000012B07D17B689B6943F0804343F004035C
:10D9B0007A689361FB7D18461837BD46BDE8804004
:10D9C00004B0704700383C8080B485B000AF786008
:10D9D00039600023FB60FB680133FB60FB68B3F137
:10D9E000706F01D903231BE07B681B69002BF2DAFF
:10D9F0000023FB603B689B0143F020027B681A61B7
:10DA0000FB680133FB60FB68B3F1706F01D903233E
:10DA100006E07B681B6903F02003202BF0D0002375
:10DA200018461437BD465DF8047B704780B485B056
:10DA300000AF78600023FB60FB680133FB60FB688C
:10DA4000B3F1706F01D9032318E07B681B69002BC9
:10DA5000F2DA0023FB607B6810221A61FB68013355
:10DA6000FB60FB68B3F1706F01D9032306E07B68AC
:10DA70001B6903F01003102BF0D000231846143755
:10DA8000BD465DF8047B704780B485B000AF786018
:10DA90000B46FB707B68FB60FB6803F500631A684C
:10DAA000FB78F96801F5006113430B600023184609
:10DAB0001437BD465DF8047B704780B487B000AF73
:10DAC00078607B683B613B6903F500639B6803F00A
:10DAD0000603FB60FB68002B02D10023FB750AE004
